:100000000C9453000C947B000C947B000C947B00AC
:100010000C947B000C947B000C947B000C947B0074
:100020000C947B000C947B000C947B000C947B0064
:100030000C947B000C947B000C947B000C947B0054
:100040000C94EF010C947B000C94B5010C947A0194
:100050000C947B000C947B000C947B000C947B0034
:100060000C947B000C947B0000000000250028000D
:100070002B0000000000240027002A0004040404D0
:100080000404040402020202020203030303030342
:10009000010204081020408001020408102001021F
:1000A00004081020390211241FBECFEFD8E0DEBFB4
:1000B000CDBF11E0A0E0B1E0E2E0F8E002C00590C1
:1000C0000D92A031B107D9F721E0A0E1B1E001C064
:1000D0001D92A33CB207E1F710E0C3E5D0E004C0F5
:1000E0002197FE010E94F903C235D107C9F70E948A
:1000F00074020C94D4030C9400000F931F93CF93BD
:10010000DF93FC01A685B7858D01005C1F4FE801D8
:100110008881998101968F739927AD014E5B5F4F5E
:10012000EA012881398128173907D1F3E8012881AC
:100130003981A20FB31F6C93A685B785A05CBF4F12
:1001400011969C938E93A689B7892C9181E090E0BB
:10015000078C02C0880F991F0A94E2F7822B8C93B8
:1001600081E081A30488F589E02D8081806480830B
:1001700081E090E0DF91CF911F910F910895FC01F4
:1001800081A1882329F0A489B5898C9186FFFBCFB2
:1001900011A20895FC01A485B585FD01E05CFF4F27
:1001A000208131813296808191812817390779F039
:1001B00080819181A80FB91F8C91208131812F5F9F
:1001C0003F4F2F7333273183208390E008958FEFC3
:1001D0009FEF0895DC011C96ED91FC911D97DF01C6
:1001E000A05CBF4F2D913C91119712968D919C91DF
:1001F00011972817390739F08D919C91E80FF91F55
:10020000808190E008958FEF9FEF0895FC01248591
:100210003585F901E05CFF4F808191813296208124
:100220003181821B930B8F739927089581EA91E0A6
:100230000C9406010895CF92DF92EF92FF920F93F4
:100240001F93CF93DF936C01EB017B01E40EF51E4E
:1002500000E010E0CE15DF0561F06991D601ED9167
:10026000FC910190F081E02DC6010995080F191F3E
:10027000F1CFC801DF91CF911F910F91FF90EF90C7
:10028000DF90CF9008953FB7F89480911501909139
:100290001601A0911701B091180126B5A89B05C0C1
:1002A0002F3F19F00196A11DB11D3FBFBA2FA92FF5
:1002B000982F8827820F911DA11DB11DBC01CD0172
:1002C00042E0660F771F881F991F4A95D1F708955E
:1002D000009769F0FC0101900020E9F73197AF0128
:1002E000481B590BBC0181EA91E00C941B0180E092
:1002F00090E008951F920F920FB60F9211242F9342
:100300003F938F939F93EF93FF93209159013091E7
:100310005A0180915B0190915C012817390731F4F3
:100320008091C1008F7D8093C10014C0E0915B017A
:10033000F0915C01E75EFE4F208180915B0190911E
:100340005C0101968F73992790935C0180935B0108
:100350002093C600FF91EF919F918F913F912F9134
:100360000F900FBE0F901F9018951F920F920FB60F
:100370000F9211242F934F935F938F939F93EF933B
:10038000FF938091C00082FD1CC02091C600809127
:100390009D0190919E0140919F015091A001019675
:1003A0008F7399274817590771F0E0919D01F091DB
:1003B0009E01E35AFE4F208390939E0180939D01FE
:1003C00002C08091C600FF91EF919F918F915F9144
:1003D0004F912F910F900FBE0F901F9018951F9265
:1003E0000F920FB60F9211242F933F938F939F93E9
:1003F000AF93BF938091110190911201A0911301CD
:10040000B09114013091100123E0230F2D3720F417
:100410000196A11DB11D05C026E8230F0296A11D5E
:10042000B11D209310018093110190931201A093AC
:100430001301B09314018091150190911601A091C0
:100440001701B09118010196A11DB11D80931501EE
:1004500090931601A0931701B0931801BF91AF912B
:100460009F918F913F912F910F900FBE0F901F90F2
:100470001895E1EAF1E01382128288EE93E0A0E0A1
:10048000B0E084839583A683B78384E091E0918371
:1004900080838DE591E09587848789E191E0978756
:1004A000868785EC90E0918B808B84EC90E0938B39
:1004B000828B80EC90E0958B848B81EC90E0978B25
:1004C000868B82EC90E0918F808F86EC90E0938F0A
:1004D000828F84E0848F83E0858F87E0868F85E03C
:1004E000878F81E080A30895CF93DF93CDB7DEB7E8
:1004F000A1970FB6F894DEBF0FBECDBF789484B538
:10050000826084BD84B5816084BD85B5826085BD0F
:1005100085B5816085BD80916E00816080936E009D
:10052000109281008091810082608093810080918F
:100530008100816080938100809180008160809340
:1005400080008091B10084608093B1008091B00000
:1005500081608093B00080917A00846080937A00FB
:1005600080917A00826080937A0080917A00816025
:1005700080937A0080917A00806880937A0010924C
:10058000C100EEE9F0E02491EAE8F0E084918823EC
:10059000C9F090E0880F991FFC01EE58FF4F45917C
:1005A0005491FC01E859FF4FA591B4919FB7F8947D
:1005B000FA0180812095822380838C91E22FE823A9
:1005C000EC939FBFE091B501F091B60181E090E01E
:1005D0009C010090C10102C0220F331F0A94E2F770
:1005E0002083E091B101F091B2011082E091B3015A
:1005F000F091B4012FEC20831092C201E091B70179
:10060000F091B80140819C010090BD0102C0220F11
:10061000331F0A94E2F7242B2083E091B701F09175
:10062000B80140819C010090BE0102C0220F331F1F
:100630000A94E2F7242B2083E091B701F091B801EE
:1006400040819C010090BF0102C0220F331F0A9419
:10065000E2F7242B2083E091B701F091B8012081CB
:100660000090C00102C0880F991F0A94E2F780959C
:100670008223808390E4792E2AE0822E912CA12C73
:10068000B12C70927C0080917A00806480937A0013
:1006900080917A0086FDFCCF8091780020917900CE
:1006A00090E0922B6C01092E000CEE08FF0897FFDA
:1006B0002DC06DE281EA91E00E947D00F094E0940B
:1006C000D094C094C11CD11CE11CF11C19A28E0154
:1006D0000F5D1F4FC701B601A50194010E94D7030A
:1006E0008C2DFAE02F9F80191124015011098A30B6
:1006F00014F4805D01C0895CF801808369017A018E
:10070000232B242B252B31F7C80123C01C2D7D2D35
:10071000C70119A29E012F5D3F4F7901612FA501ED
:1007200094010E94D7038AE0289F1019112491E0B8
:10073000E91AF1081A3014F4105D01C0195CF701D0
:100740001083122F732FCA01232B242B252B31F753
:10075000C7010E9468016DE081EA91E00E947D007E
:100760006AE081EA91E00E947D000E9443018B01D2
:100770008CEDC82E85E0D82EE12CF12C0E9443018F
:10078000601B710B683E7340C8F321E0C21AD108A8
:10079000E108F10808511C4FC114D104E104F1042F
:1007A00069F70E9416016DCFF8940C94FF03A1E243
:1007B0001A2EAA1BBB1BFD010DC0AA1FBB1FEE1FDB
:1007C000FF1FA217B307E407F50720F0A21BB30B26
:1007D000E40BF50B661F771F881F991F1A9469F7A2
:1007E00060957095809590959B01AC01BD01CF01FE
:1007F0000895EE0FFF1F0590F491E02D0994F894F1
:02080000FFCF28
:10080200000000007D001B010601CA00EA00BF00D3
:00000001FF
